S01B0000576174657254616E6B436F6E74726F6C6C65722E7372656354
S11300000C9434000C9451000C9451000C94510045
S11300100C9451000C9451000C9451000C94510018
S11300200C9451000C94A9010C9451000C945100AF
S11300300C9451000C9451000C9451000C945100F8
S11300400C9451000C9451000C9451000C945100E8
S11300500C9451000C9451000C9451000C945100D8
S11300600C9451000C94510011241FBECFEFD8E022
S1130070DEBFCDBF11E0A0E0B1E0E0E8F3E002C0F4
S113008005900D92AE30B107D9F721E0AEE0B1E0B2
S113009001C01D92AF30B207E1F70E9472010C94C7
S11300A0BE010C940000FC01408121E030E002C05C
S11300B0220F331F6A95E2F7242B20830895FC0155
S11300C0808121E030E002C0220F331F6A95E2F7FD
S11300D0922F9095892380838181282B21830895F1
S11300E0FC01908121E030E002C0220F331F6A95A9
S11300F0E2F7209529232083089585B1826085B98C
S113010085E08A95F1F7000085B18D7F85B9089562
S1130110CF93C82F662321F085B1816085B903C0D0
S113012085B18E7F85B98AB180618AB98AB18062CE
S11301308AB98AB180648AB98AB180688AB98BB174
S11301408F778BB98BB18F7B8BB98BB18F7D8BB94B
S11301508BB18F7E8BB9CC231CF48BB180688BB9A7
S1130160C6FF03C08BB180648BB9C5FF03C08BB1DC
S113017080628BB9C4FF03C08BB180618BB90E94CC
S11301807D008BB18F778BB98BB18F7B8BB98BB1A2
S11301908F7D8BB98BB18F7E8BB9C3FF03C08BB1BD
S11301A080688BB9C2FF03C08BB180648BB9C1FF77
S11301B003C08BB180628BB9C0FF03C08BB1806177
S11301C08BB90E947D008BB180618BB98BB1806249
S11301D08BB98BB180648BB98BB180688BB987EB99
S11301E09BE00197F1F700C00000CF91089560E013
S11301F00E9488000895611104C080580E94F7008D
S1130200089580540E94F700089581E00E94F70049
S1130210089561E00E9488000895CF93DF93FC0164
S113022003C00E940901FE01EF0121968081811122
S1130230F8CFDF91CF910895CF93C82F84B1816017
S113024084B98AB180628AB984B1826084B98AB17E
S113025080618AB98AB180628AB98AB180648AB9B4
S11302608AB180688AB98FEF99EF0197F1F700C0DE
S113027000008BB180628BB98BB180618BB90E9415
S11302807D008FE19EE40197F1F700C000000E9419
S11302907D008FEF90E00197F1F700C000000E940D
S11302A07D008FEF90E00197F1F700C000008BB163
S11302B08F7E8BB90E947D008FEF90E00197F1F75C
S11302C000C0000088E20E94F70088E00E94F70066
S11302D00E94050186E00E94F7008C2F0E94F7001F
S11302E0CF91089563E08AE290E00E94530063E0B6
S11302F08BE290E00E94700062E08AE290E00E944B
S11303005F008CE00E941C0180E40E94F70080E8FA
S11303100E94F70060E080E00E94FB0080E091E032
S11303200E940D0161E080E00E94FB0087E091E003
S11303300E940D0185B58D7F85BDE1EBF0E08081E4
S113034085608083E0E7F0E0808181608083789439
S1130350FFCF1F920F920FB60F9211248F938091AB
S11303600E018F5F80930E01863010F010920E0103
S11303708F910F900FBE0F901F901895F894FFCF98
S11103804C4556454C3A0050554D503A00003D
S9030000FC
