S01B0000576174657254616E6B436F6E74726F6C6C65722E7372656354
S11300000C9434000C94C2010C9451000C945100D3
S11300100C9451000C9451000C9451000C94510018
S11300200C9451000C9451000C9451000C94510008
S11300300C9451000C941E020C9451000C94510029
S11300400C944E020C9451000C9451000C945100E9
S11300500C9451000C9451000C9451000C945100D8
S11300600C9451000C94510011241FBECFEFD8E022
S1130070DEBFCDBF11E0A0E0B1E0E8E3F5E002C0EF
S113008005900D92A431B107D9F721E0A4E1B1E0C4
S113009001C01D92AA31B207E1F70E947E010C94BF
S11300A09A020C940000FC01408121E030E002C07F
S11300B0220F331F6A95E2F7242B20830895FC0155
S11300C0808121E030E002C0220F331F6A95E2F7FD
S11300D0922F9095892380838181282B21830895F1
S11300E0FC01908121E030E002C0220F331F6A95A9
S11300F0E2F72095292320830895FC01408121E023
S113010030E002C0220F331F6A95E2F7242B2083CC
S1130110089585B1826085B985E08A95F1F700007C
S113012085B18D7F85B90895CF93C82F662321F0BB
S113013085B1816085B903C085B18E7F85B98AB1E7
S113014080618AB98AB180628AB98AB180648AB9C5
S11301508AB180688AB98BB18F778BB98BB18F7B69
S11301608BB98BB18F7D8BB98BB18F7E8BB9CC233F
S11301701CF48BB180688BB9C6FF03C08BB180645B
S11301808BB9C5FF03C08BB180628BB9C4FF03C0B8
S11301908BB180618BB90E9489008BB18F778BB949
S11301A08BB18F7B8BB98BB18F7D8BB98BB18F7EEC
S11301B08BB9C3FF03C08BB180688BB9C2FF03C086
S11301C08BB180648BB9C1FF03C08BB180628BB9E2
S11301D0C0FF03C08BB180618BB90E9489008BB1D1
S11301E080618BB98BB180628BB98BB180648BB920
S11301F08BB180688BB987EB9BE00197F1F700C066
S11302000000CF91089560E00E9494000895611168
S113021004C080580E940301089580540E94030181
S1130220089581E00E940301089561E00E94940012
S11302300895CF93DF93FC0103C00E941501FE01D2
S1130240EF01219680818111F8CFDF91CF9108953C
S1130250CF93C82F84B1816084B98AB180628AB98E
S113026084B1826084B98AB180618AB98AB18062BA
S11302708AB98AB180648AB98AB180688AB98FEFF1
S113028099EF0197F1F700C000008BB180628BB940
S11302908BB180618BB90E9489008FE19EE4019744
S11302A0F1F700C000000E9489008FEF90E00197F1
S11302B0F1F700C000000E9489008FEF90E00197E1
S11302C0F1F700C000008BB18F7E8BB90E948900CA
S11302D08FEF90E00197F1F700C0000088E20E94E0
S11302E0030188E00E9403010E94110186E00E943C
S11302F003018C2F0E940301CF91089560E08AE2EC
S113030090E00E94530060E08BE290E00E94700055
S113031062E08AE290E00E945F008CE00E94280183
S113032060E081E00E94070180E091E00E941901F1
S113033060E08CE00E94070187E091E00E941901CF
S113034061E081E00E9407018AE091E00E941901C6
S1130350E9E6F0E08081816080838081817F808311
S11303608DB381608DBBE1E8F0E080818A7F80837A
S1130370808182608083EFE6F0E080818160808309
S11303807894FFCF1F920F920FB60F9211242F93E0
S11303903F934F935F936F937F938F939F93AF9309
S11303A0BF93EF93FF9380911701882321F185B5C3
S11303B0887F85BD16BC80911801909119014AE08F
S11303C064E171E096958795969587950E946502FC
S11303D060E088E00E94070180E191E00E94190139
S11303E060E088E00E94070184E191E00E94190125
S11303F01092170112C0109219011092180185B5BC
S1130400897F85BD85B5816085BDEEE6F0E080819C
S11304108160808381E080931701FF91EF91BF9108
S1130420AF919F918F917F916F915F914F913F9188
S11304302F910F900FBE0F901F9018951F920F923F
S11304400FB60F9211242F933F934F935F936F93A3
S11304507F938F939F93AF93BF93EF93FF9360E04A
S11304608BE290E00E947D0085E38A95F1F700001D
S113047060E08BE290E00E947000FF91EF91BF91E9
S1130480AF919F918F917F916F915F914F913F9128
S11304902F910F900FBE0F901F9018951F920F92DF
S11304A00FB60F9211248F939F938091180190910E
S11304B01901019690931901809318019F918F91CE
S11304C00F900FBE0F901F901895BB274A3031F440
S11304D0992322F4BDE2909581959F4F0C9471026B
S11304E0BB27FB015527AA27880F991FAA1FA4170A
S11304F010F0A41B83955051B9F7A05DAA3308F0FE
S1130500A95DA193009779F7B111B1931192CB0131
S11305100C948A02DC01FC01672F71917723E1F7C7
S1130520329704C07C916D9370836291AE17BF07BC
S10B0530C8F30895F894FFCF0D
S11305384C4556454C3A00636D0050554D503A00B1
S1070548202020004B
S9030000FC
